:020000040000FA
:100000000C9462000C948A000C948A000C948A0070
:100010000C948A000C948A000C948A000C948A0038
:100020000C948A000C948A000C948A000C948A0028
:100030000C948A000C948A000C948A000C948A0018
:100040000C9495030C948A000C948A000C948A00FA
:100050000C948A000C948A000C948A000C948A00F8
:100060000C948A000C948A000000000024002700F1
:100070002A0000000000250028002B0000000000DE
:1000800023002600290004040404040404040202DA
:100090000202020203030303030301020408102007
:1000A0004080010204081020010204081020000012
:1000B0000008000201000003040700000000000027
:1000C0000000D70411241FBECFEFD8E0DEBFCDBFA4
:1000D00011E0A0E0B1E0EEE3FAE002C005900D927D
:1000E000A834B107D9F721E0A8E4B1E001C01D921E
:1000F000AB36B207E1F710E0C2E6D0E004C02197CA
:10010000FE010E941705C136D107C9F70E94DF031F
:100110000C941D050C940000AF92BF92CF92DF9219
:10012000EF92FF920F931F93CF93DF936C017B01AC
:100130008B01040F151FEB015E01AE18BF08C0173D
:10014000D10759F06991D601ED91FC910190F081B0
:10015000E02DC6010995892B79F7C501DF91CF9173
:100160001F910F91FF90EF90DF90CF90BF90AF90D5
:100170000895833081F028F4813099F08230A9F01D
:1001800008958730A9F08830C9F08430B1F48091A7
:1001900080008F7D03C0809180008F7780938000E6
:1001A000089584B58F7784BD089584B58F7DFBCF86
:1001B0008091B0008F778093B00008958091B00057
:1001C0008F7DF9CFCF93DF93282F30E0F901E255EF
:1001D000FF4F8491F901E656FF4FD491F901EA5798
:1001E000FF4FC491CC23A1F081110E94B900EC2FE4
:1001F000F0E0EE0FFF1FE458FF4FA591B491EC9192
:10020000ED2381E090E009F480E0DF91CF91089543
:1002100080E090E0FACF1F93CF93DF93282F30E058
:10022000F901E255FF4F8491F901E656FF4FD49151
:10023000F901EA57FF4FC491CC23A9F0162F811181
:100240000E94B900EC2FF0E0EE0FFF1FEE58FF4FB9
:10025000A591B4918FB7F894EC91111108C0D09585
:10026000DE23DC938FBFDF91CF911F910895DE2BAA
:10027000F8CFCF93DF9390E0FC01E656FF4F249137
:100280008A579F4FFC0184918823D1F090E0880F1A
:10029000991FFC01E859FF4FA591B491FC01EE585C
:1002A000FF4FC591D49161110EC09FB7F8948C9106
:1002B000E22FE0958E238C932881E223E8839FBF71
:1002C000DF91CF9108958FB7F894EC91E22BEC93E6
:1002D0008FBFF6CF3FB7F89480914D0190914E01BA
:1002E000A0914F01B091500126B5A89B05C02F3FAA
:1002F00019F00196A11DB11D3FBFBA2FA92F982F4C
:100300008827BC01CD01620F711D811D911D42E046
:10031000660F771F881F991F4A95D1F708958F920E
:100320009F92AF92BF92CF92DF92EF92FF924B01DA
:100330005C010E946A016B017C010E946A016C19D8
:100340007D098E099F09683E734081059105A8F3D8
:1003500021E0821A9108A108B10888EEC80E83E056
:10036000D81EE11CF11C81149104A104B10429F7E9
:10037000FF90EF90DF90CF90BF90AF909F908F90C5
:100380000895089590E080E008958F929F92AF9233
:10039000BF920F931F93CF93DF93CDB7DEB7A19793
:1003A0000FB6F894DEBF0FBECDBF19A2423008F4DD
:1003B0004AE08E010F5D1F4F842E912CB12CA12C91
:1003C000A50194010E94F504E62FB901CA01EA30A3
:1003D00044F5E05DD801EE938D01232B242B252BD2
:1003E00079F790E080E0109769F0FD01019000201E
:1003F000E9F73197AF014A1B5B0BBD0183E591E043
:100400000E948C00A1960FB6F894DEBF0FBECDBF40
:10041000DF91CF911F910F91BF90AF909F908F90E0
:100420000895E95CD7CFFC0101900020E9F73197EE
:10043000AF01481B590BBC0183E591E00C948C0083
:10044000CF93DF93EC0160E08E810E940B0161E0AD
:100450008E810E940B0160E08E810E940B018BE86F
:1004600091E00197F1F7DF91CF910895CF92DF925C
:10047000EF92FF920F931F93CF93DF936C017C0158
:1004800087E0E80EF11CD0E0C0E0062F10E0B801D4
:100490000C2E02C0759567950A94E2F76170F7011A
:1004A00081917F010E940B012196C430D10579F71B
:1004B000C601DF91CF911F910F91FF90EF90DF90D8
:1004C000CF900C942002CF92DF92EF92FF920F9385
:1004D0001F93CF93DF93EC01F62E642F8C810E9443
:1004E0000B018D818F3F19F060E00E940B010F2DF1
:1004F00010E08F8584FF25C06E0187E0C80ED11CF7
:10050000F12CE12CB8010E2C02C0759567950A9468
:10051000E2F76170F60181916F010E940B01FFEF1C
:10052000EF1AFF0A88E0E816F10461F7CE01DF91C7
:10053000CF911F910F91FF90EF90DF90CF900C948F
:100540002002B80184E0759567958A95E1F7CE01A0
:100550000E9436026F2DCE01DF91CF911F910F9136
:10056000FF90EF90DF90CF900C94360240E0682F20
:1005700083E591E00C94630281E00E94B6028BE374
:100580009FE10197F1F70895CF93DF93823029F42B
:10059000909162019860909362018093660110923D
:1005A000670180E48093680180E18093690180E5C0
:1005B00080936A0161E0809157010E943901809126
:1005C00058018F3F19F061E00E94390161E080918C
:1005D00059010E943901C3E5D1E09E012355314004
:1005E0008091620184FD0BC084E090E02196281781
:1005F000390744F461E08E810E943901EECF88E032
:1006000090E0F4CF8BE39DE00197F1F760E08091FB
:1006100057010E940B0160E0809159010E940B017B
:10062000809158018F3F19F060E00E940B0180918A
:10063000620184FD34C063E083E591E00E943602EC
:10064000CBE4D6E4CE010197F1F763E083E591E0D6
:100650000E9436022197F1F763E083E591E00E9462
:10066000360283E592E00197F1F762E083E591E0DD
:100670000E9436028091620180620E94B60284E08C
:10068000809363018CE00E94B6020E94BC0282E06B
:100690008093640186E0DF91CF910C94B602806272
:1006A0000E94B6028BE496E40197F1F78091620113
:1006B00080620E94B60283E592E00197F1F7809193
:1006C000620180620E94B602D5CFE0916601E230FD
:1006D00040F4E150F0E0ED5AFE4F848980680C94BC
:1006E000B602E1E0F7CF41E00E94630281E090E0D2
:1006F0000895CF92DF92EF92FF926B017C0141E06F
:100700006DE283E591E00E94630266277727CB01C3
:100710006C197D098E099F094AE00E94C501019666
:10072000FF90EF90DF90CF9008951F920F920FB639
:100730000F9211242F933F938F939F93AF93BF9367
:100740008091490190914A01A0914B01B0914C01D7
:100750003091480123E0230F2D3758F50196A11D54
:10076000B11D209348018093490190934A01A093C1
:100770004B01B0934C0180914D0190914E01A0919D
:100780004F01B09150010196A11DB11D80934D0103
:1007900090934E01A0934F01B0935001BF91AF9140
:1007A0009F918F913F912F910F900FBE0F901F90AF
:1007B000189526E8230F0296A11DB11DD2CF78947B
:1007C00084B5826084BD84B5816084BD85B5826056
:1007D00085BD85B5816085BD80916E008160809307
:1007E0006E00109281008091810082608093810070
:1007F0008091810081608093810080918000816080
:10080000809380008091B10084608093B1008091DA
:10081000B00081608093B00080917A008460809302
:100820007A0080917A00826080937A0080917A00C9
:10083000816080937A0080917A00806880937A004A
:100840001092C10082E00E94C4028CE091E00E94FC
:10085000130260ED77E080E090E00E948F0160E09D
:100860008EE00E94390160E08FE00E94390161E072
:1008700082E00E9439010E94BC028CE191E00E945A
:1008800013020E9465036091510170915201072E7D
:10089000000C880B990B97FF79C00E947903C0E088
:1008A000D0E08EE00E94E200892B19F18091510185
:1008B00090915201019690935201809351010E94B0
:1008C000BC028CE191E00E9413020E9465036091DA
:1008D000510170915201072E000C880B990B97FF64
:1008E00059C00E94790368EE73E080E090E00E94B6
:1008F0008F018FE00E94E200892B19F18091510154
:1009000090915201019790935201809351010E945E
:10091000BC028CE191E00E9413020E946503609189
:10092000510170915201072E000C880B990B97FF13
:1009300035C00E94790368EE73E080E090E00E9489
:100940008F0180915101909152011816190654F1AE
:100950000E94BC0260E082E00E940B010E94BC0287
:100960008CE291E00E9413020E9465038BE391E008
:100970000E94130268EC70E080E090E00E948F011A
:10098000209709F48ECF0E9400008BCF4AE00E948E
:10099000C50185CF4AE00E94C501A5CF4AE00E946B
:1009A000C501C9CF61E082E00E940B01E9CFE3E518
:1009B000F1E01382128284E091E0918380838DE0E4
:1009C00084838FEF85838CE086838BE087838AE046
:1009D000808789E0818788E0828713861486158660
:1009E0001686178681E00C94C402A1E21A2EAA1B77
:1009F000BB1BFD010DC0AA1FBB1FEE1FFF1FA217CF
:100A0000B307E407F50720F0A21BB30BE40BF50BCB
:100A1000661F771F881F991F1A9469F76095709554
:100A2000809590959B01AC01BD01CF010895EE0F1B
:100A3000FF1F0590F491E02D0994F894FFCF00007A
:100A4000000073038C00C201C10156697369746FA1
:100A50007220436F756E74657200506572736F6EAD
:100A600020496E20526F6F6D3A004E6F626F64794D
:100A700020496E20526F6F6D004C69676874204981
:060A800073204F666600C2
:107E0000112484B714BE81FFF0D085E080938100F7
:107E100082E08093C00088E18093C10086E0809377
:107E2000C20080E18093C4008EE0C9D0259A86E02C
:107E300020E33CEF91E0309385002093840096BBD3
:107E4000B09BFECF1D9AA8958150A9F7CC24DD24C4
:107E500088248394B5E0AB2EA1E19A2EF3E0BF2EE7
:107E6000A2D0813461F49FD0082FAFD0023811F036
:107E7000013811F484E001C083E08DD089C08234E0
:107E800011F484E103C0853419F485E0A6D080C0E4
:107E9000853579F488D0E82EFF2485D0082F10E0AE
:107EA000102F00270E291F29000F111F8ED06801E7
:107EB0006FC0863521F484E090D080E0DECF843638
:107EC00009F040C070D06FD0082F6DD080E0C81688
:107ED00080E7D80618F4F601B7BEE895C0E0D1E017
:107EE00062D089930C17E1F7F0E0CF16F0E7DF06D8
:107EF00018F0F601B7BEE89568D007B600FCFDCFD4
:107F0000A601A0E0B1E02C9130E011968C91119780
:107F100090E0982F8827822B932B1296FA010C0160
:107F200087BEE89511244E5F5F4FF1E0A038BF0790
:107F300051F7F601A7BEE89507B600FCFDCF97BE46
:107F4000E89526C08437B1F42ED02DD0F82E2BD052
:107F50003CD0F601EF2C8F010F5F1F4F84911BD097
:107F6000EA94F801C1F70894C11CD11CFA94CF0C13
:107F7000D11C0EC0853739F428D08EE10CD085E9AC
:107F80000AD08FE07ACF813511F488E018D01DD067
:107F900080E101D065CF982F8091C00085FFFCCF94
:107FA0009093C60008958091C00087FFFCCF809118
:107FB000C00084FD01C0A8958091C6000895E0E648
:107FC000F0E098E1908380830895EDDF803219F02E
:107FD00088E0F5DFFFCF84E1DECF1F93182FE3DFCA
:107FE0001150E9F7F2DF1F91089580E0E8DFEE27F6
:047FF000FF270994CA
:027FFE00040479
:00000001FF
